:100000000C9434000C9451000C9451000C94510049
:100010000C9451000C9451000C9451000C9451001C
:100020000C9451000C9451000C9451000C94DA0182
:100030000C9451000C9451000C9451000C945100FC
:100040000C9451000C9451000C9451000C945100EC
:100050000C9451000C9451000C9451000C945100DC
:100060000C9451000C94510011241FBECFEFD8E026
:10007000DEBFCDBF11E0A0E0B1E0E4E3FBE102C0F0
:1000800005900D92A430B107D9F721E0A4E0B1E0CA
:1000900001C01D92AF32B207E1F70E94FB0A0C9437
:1000A000980D0C940000CF93DF931F92CDB7DEB76D
:1000B000198275C08981282F30E0C901880F991FE6
:1000C000880F991F880F991F821B930B825F9E4F89
:1000D000FC018081882309F45FC08981282F30E0EA
:1000E000C901880F991F880F991F880F991F821BBC
:1000F000930B885F9E4FFC0180819181892B09F4CD
:100100004BC08981282F30E0C901880F991F880FC3
:10011000991F880F991F821B930B885F9E4FFC01CC
:1001200080819181FC0109958981282F30E08981A6
:10013000482F50E0CA01880F991F880F991F880F18
:10014000991F841B950B825F9E4FFC0180814FEFAE
:10015000480FC901880F991F880F991F880F991F91
:10016000821B930B825F9E4FFC0140838981282F65
:1001700030E0C901880F991F880F991F880F991FB8
:10018000821B930B845F9E4FFC0180819181892BA0
:1001900019F489810E945B0189818F5F898389813C
:1001A000853008F487CF00000F90DF91CF9108953C
:1001B000CF93DF93CDB7DEB727970FB6F894DEBFA6
:1001C0000FBECDBF9B838A837D836C835F834E8309
:1001D000198203C089818F5F89838981282F30E04C
:1001E000C901880F991F880F991F880F991F821BBB
:1001F000930B885F9E4FFC0180819181892B19F0C0
:100200008981853038F38981853011F485E04AC0D1
:100210008981282F30E0C901880F991F880F991F05
:10022000880F991F821B930B885F9E4F2A813B8109
:10023000FC01318320838981282F30E0C901880F98
:10024000991F880F991F880F991F821B930B865F38
:100250009E4F2C813D81FC01318320838981282F91
:1002600030E0C901880F991F880F991F880F991FC7
:10027000821B930B845F9E4F2E813F81FC01318353
:1002800020838981282F30E0C901880F991F880FAA
:10029000991F880F991F821B930B825F9E4FFC0151
:1002A0001082898127960FB6F894DEBF0FBECDBFAE
:1002B000DF91CF910895CF93DF9300D0CDB7DEB714
:1002C0008A8319828A81282F30E0C901880F991FFB
:1002D000880F991F880F991F821B930B885F9E4F71
:1002E000FC01118210828A81282F30E0C901880F19
:1002F000991F880F991F880F991F821B930B865F88
:100300009E4FFC01118210828A81282F30E0C901A2
:10031000880F991F880F991F880F991F821B930BB5
:10032000845F9E4FFC01118210828A81282F30E069
:10033000C901880F991F880F991F880F991F821B69
:10034000930B825F9E4FFC01108289810F900F906A
:10035000DF91CF910895CF93DF931F92CDB7DEB792
:10036000198206C089810E945B0189818F5F898320
:1003700089818530B8F388E890E021E732E0FC011C
:100380003183208381E890E02CE0FC0120838FE61C
:1003900090E022E0FC01208300000F90DF91CF91DC
:1003A0000895CF93DF93CDB7DEB778940000DF9147
:1003B000CF9108951F920F9200905F000F92112429
:1003C0002F933F934F935F938F939F93EF93FF935D
:1003D000CF93DF931F92CDB7DEB71982CEC089814C
:1003E000282F30E0C901880F991F880F991F880FA7
:1003F000991F821B930B885F9E4FFC018081918126
:10040000892B09F4B7C08981282F30E0C901880FF2
:10041000991F880F991F880F991F821B930B865F66
:100420009E4FFC0180819181892B09F07EC08981DA
:10043000282F30E08981482F50E0CA01880F991F8A
:10044000880F991F880F991F841B950B825F9E4F01
:10045000FC01808141E0480FC901880F991F880F76
:10046000991F880F991F821B930B825F9E4FFC017F
:1004700040838981282F30E0C901880F991F880F98
:10048000991F880F991F821B930B845F9E4FFC015D
:1004900080819181892B09F46DC08981282F30E0FA
:1004A0008981482F50E0CA01880F991F880F991F32
:1004B000880F991F841B950B845F9E4FFC01408120
:1004C0005181C901880F991F880F991F880F991FA3
:1004D000821B930B865F9E4FFC0151834083898171
:1004E000282F30E08981482F50E0CA01880F991FDA
:1004F000880F991F880F991F841B950B865F9E4F4D
:10050000FC0180819181AC0141505109C901880FE2
:10051000991F880F991F880F991F821B930B865F65
:100520009E4FFC015183408325C08981282F30E0F4
:100530008981482F50E0CA01880F991F880F991FA1
:10054000880F991F841B950B865F9E4FFC0180814D
:100550009181AC0141505109C901880F991F880F41
:10056000991F880F991F821B930B865F9E4FFC017A
:100570005183408389818F5F89838981853008F425
:100580002ECF00000F90DF91CF91FF91EF919F91BF
:100590008F915F914F913F912F910F9000925F004B
:1005A0000F901F901895CF93DF931F92CDB7DEB7B2
:1005B000898380EC90E0FC018081882F90E080723C
:1005C0009927892BB1F386EC90E02981FC012083E7
:1005D00000000F90DF91CF910895CF93DF93CDB7B7
:1005E000DEB78CE790E020E4FC0120838AE790E00E
:1005F00027E8FC0120830000DF91CF910895CF937D
:10060000DF931F92CDB7DEB789838CE790E02CE7AC
:1006100030E0F9012081207FFC0120838CE790E00D
:100620002CE730E0F90130812981232BFC01208364
:100630008AE790E02AE730E0F90120812064FC019C
:10064000208300008AE790E0FC018081882F90E001
:1006500080749927892BB1F788E790E0FC018081AD
:1006600091810F90DF91CF910895CF93DF93CDB714
:10067000DEB785EC90E0FC01108284EC90E023E38F
:10068000FC01208380EC90E0FC01108281EC90E082
:1006900028E1FC01208382EC90E026E0FC0120832D
:1006A00081E890E021E830E0F90120812460FC013C
:1006B00020830000DF91CF9108950F931F93CF9374
:1006C000DF93CDB7DEB7C554D1090FB6F894DEBFBE
:1006D0000FBECDBF85E290E025E230E0F901208138
:1006E0002D7FFC01208380E090E0A0E0B0E48983CE
:1006F0009A83AB83BC832BEA3AEA4AEA50E46981E5
:100700007A818B819C810E94DE0CDC01CB018AA75F
:100710009BA7ACA7BDA720E030E040E850E469818A
:100720007A818B819C810E94DE0CDC01CB018EA73B
:100730009FA7A8ABB9AB20E030E040E85FE36AA533
:100740007BA58CA59DA50E94810B88231CF481E0CC
:100750008AABD0C020E03FEF4FE757E46EA57FA5FE
:1007600088A999A90E94D90C18160CF085C020E020
:1007700030E04AE754E469817A818B819C810E9450
:10078000860BDC01CB018BAB9CABADABBEAB20E0F1
:1007900030E04AE755E46BA97CA98DA99EA90E9487
:1007A000DE0CDC01CB018FAB98AFA9AFBAAF20E074
:1007B00030E040E85FE36FA978AD89AD9AAD0E9463
:1007C000810B88232CF481E090E09CAF8BAF3FC07D
:1007D00020E03FEF4FE757E46FA978AD89AD9AADC0
:1007E0000E94D90C18164CF520E030E040E251E4AC
:1007F0006BA97CA98DA99EA90E94DE0CDC01CB010E
:10080000BC01CD010E94F80BDC01CB019CAF8BAF8A
:100810000FC080E991E09EAF8DAF8DAD9EAD019789
:10082000F1F79EAF8DAF8BAD9CAD01979CAF8BAFB9
:100830008BAD9CAD892B69F75DC06FA978AD89AD93
:100840009AAD0E94F80BDC01CB019CAF8BAF2BADB6
:100850003CADCE01CF96FC0131832083CE01CF96F3
:10086000FC01808191810197F1F79E01215C3F4F4E
:10087000F901918380833EC020E030E04FE753E4EC
:100880006AA57BA58CA59DA50E94D90C18164CF5D0
:100890008E010F5B1F4F6EA57FA588A999A90E94A5
:1008A000F80BDC01CB01F80191838083CE018D5BD5
:1008B0009F4F9E012F5B3F4FF90120813181FC0149
:1008C00031832083CE018D5B9F4FFC01808191811C
:1008D0000197F1F79E012D5B3F4FF90191838083D2
:1008E0001CC06AA57BA58CA59DA50E94F80BDC0108
:1008F000CB018AABCE018B5B9F4F2AA9FC012083E1
:10090000CE018B5B9F4FFC018081282F2A95F1F748
:10091000CE018B5B9F4FFC01208385E290E025E2B6
:1009200030E0F90120812260FC01208380E090E02A
:10093000A0E2B1E48A879B87AC87BD872BEA3AEABD
:100940004AEA50E46A857B858C859D850E94DE0C91
:10095000DC01CB018E879F87A88BB98B20E030E02C
:1009600040E850E46A857B858C859D850E94DE0C7D
:10097000DC01CB018A8B9B8BAC8BBD8B20E030E004
:1009800040E85FE36E857F85888999890E94810BA5
:1009900088231CF481E08E8BB2C020E03FEF4FE74C
:1009A00057E46A897B898C899D890E94D90C181625
:1009B0000CF07BC020E030E04AE754E46A857B8598
:1009C0008C859D850E94860BDC01CB018F8B988FD7
:1009D000A98FBA8F20E030E04AE755E46F89788D1F
:1009E000898D9A8D0E94DE0CDC01CB018B8F9C8F50
:1009F000AD8FBE8F20E030E040E85FE36B8D7C8DF3
:100A00008D8D9E8D0E94810B88232CF481E090E0D7
:100A100098A38F8F3FC020E03FEF4FE757E46B8DE7
:100A20007C8D8D8D9E8D0E94D90C18164CF520E082
:100A300030E040E251E46F89788D898D9A8D0E9473
:100A4000DE0CDC01CB01BC01CD010E94F80BDC0106
:100A5000CB0198A38F8F0FC080E991E09AA389A35F
:100A600089A19AA10197F1F79AA389A38F8D98A1E3
:100A7000019798A38F8F8F8D98A1892B69F73FC01D
:100A80006B8D7C8D8D8D9E8D0E94F80BDC01CB01D2
:100A900098A38F8F8F8D98A19CA38BA38BA19CA1D2
:100AA0000197F1F79CA38BA32AC020E030E04FE729
:100AB00053E46E857F85888999890E94D90C181620
:100AC000ACF46A897B898C899D890E94F80BDC01D2
:100AD000CB019EA38DA38DA19EA198A78FA38FA1CB
:100AE00098A50197F1F798A78FA30FC06E857F8512
:100AF000888999890E94F80BDC01CB018E8B8E8945
:100B000089A789A58A95F1F789A785E290E025E272
:100B100030E0F90120812D7FFC01208383E290E009
:100B2000FC018081882F90E084709927892BB1F394
:100B300084E890E0FC011182108283E290E0FC01E5
:100B40008081882F90E084709927892BB1F784E801
:100B500090E0FC0180819181CC01A0E0B0E0BC017B
:100B6000CD010E94270CDC01CB0120E030E040E801
:100B700051E4BC01CD010E94860BDC01CB0120E0D9
:100B800030E048E652E4BC01CD010E94860BDC0156
:100B9000CB0120E030E040E852E4BC01CD010E94EE
:100BA000DE0CDC01CB0120E030E040E850E4BC0189
:100BB000CD010E94DE0CDC01CB018D839E83AF83CF
:100BC000B8878D819E81AF81B885BC01CD010E941F
:100BD0004B0DDC01CB01BC01CD010E94F80BDC0107
:100BE000CB01898789850E94D3020000CB5BDF4F50
:100BF0000FB6F894DEBF0FBECDBFDF91CF911F912E
:100C00000F910895CF93DF93CDB7DEB729970FB635
:100C1000F894DEBF0FBECDBF80E00E94FF02CC0182
:100C2000A0E0B0E0BC01CD010E94270CDC01CB01AB
:100C300080932B0190932C01A0932D01B0932E0152
:100C400080912B0190912C01A0912D01B0912E014A
:100C500020E030E040EA50E4BC01CD010E94DE0C0F
:100C6000DC01CB0189839A83AB83BC8320E030E035
:100C700040E854E469817A818B819C810E94860BD3
:100C8000DC01CB0189839A83AB83BC8320E030E015
:100C900040E05FE369817A818B819C810E94140B23
:100CA000DC01CB0120E030E048EC52E4BC01CD0196
:100CB0000E94DE0CDC01CB018D839E83AF83B8875D
:100CC0008D819E81AF81B885BC01CD010E944B0D05
:100CD000DC01CB01BC01CD010E94F80BDC01CB0192
:100CE0008987898529960FB6F894DEBF0FBECDBFE0
:100CF000DF91CF910895CF93DF93CDB7DEB769979A
:100D00000FB6F894DEBF0FBECDBF1B821C821D82C2
:100D10001E821A82198293C00E940206882F90E0D8
:100D2000092E000CAA0BBB0BBC01CD010E94290CA3
:100D3000DC01CB019C01AD016B817C818D819E81A9
:100D40000E94150BDC01CB018B839C83AD83BE839A
:100D500080E090E0AAE7B4E48C879D87AE87BF87E8
:100D600020E030E04AE755E46C857D858E859F85DF
:100D70000E94DE0CDC01CB01888B998BAA8BBB8B8C
:100D800020E030E040E85FE3688979898A899B89BF
:100D90000E94810B88232CF481E090E09D8B8C8B4A
:100DA0003FC020E03FEF4FE757E4688979898A899F
:100DB0009B890E94D90C18164CF520E030E040E2E7
:100DC00051E46C857D858E859F850E94DE0CDC015B
:100DD000CB01BC01CD010E94F80BDC01CB019D8B46
:100DE0008C8B0FC080E991E09F8B8E8B8E899F89C1
:100DF0000197F1F79F8B8E8B8C899D8901979D8B35
:100E00008C8B8C899D89892B69F714C068897989B5
:100E10008A899B890E94F80BDC01CB019D8B8C8B0E
:100E20008C899D89998F888F888D998D0197F1F78D
:100E3000998F888F89819A8101969A838983898184
:100E40009A810A970CF468CF20E030E040E251E448
:100E50006B817C818D819E810E94860BDC01CB01A0
:100E60008F839887A987BA878F819885A985BA8546
:100E7000BC01CD010E944B0DDC01CB01BC01CD01B9
:100E80000E94F80BDC01CB018B878B850E94D3027B
:100E9000000069960FB6F894DEBF0FBECDBFDF919C
:100EA000CF910895CF93DF931F92CDB7DEB781E046
:100EB0000E94FF02CC01A0E0B0E0BC01CD010E9485
:100EC000270CDC01CB0180932B0190932C01A09384
:100ED0002D01B0932E0180912B0190912C01A091B6
:100EE0002D01B0912E019C01AD0160E070EC8FE707
:100EF00094E40E94140BDC01CB0180932B019093AE
:100F00002C01A0932D01B0932E0180912B01909183
:100F10002C01A0912D01B0912E0120E030E04FE78F
:100F200053E4BC01CD010E94DE0CDC01CB0120E0CA
:100F300030EC4FE754E4BC01CD010E94860BDC018C
:100F4000CB0180932B0190932C01A0932D01B093A2
:100F50002E0180912B0190912C01A0912D01B09137
:100F60002E01BC01CD010E944B0DDC01CB01BC0167
:100F7000CD010E94F80BDC01CB01898389810E949D
:100F8000D30200000F90DF91CF910895CF93DF93AC
:100F9000CDB7DEB780EC90E0FC0180818823D4F7E8
:100FA00086EC90E0FC018081DF91CF910895CF9392
:100FB000DF93CDB7DEB78BE290E02BE230E0F901B2
:100FC00020812062FC0120830000DF91CF910895F1
:100FD000CF93DF93CDB7DEB78BE290E02BE230E02A
:100FE000F90120812F7DFC0120830000DF91CF914A
:100FF0000895CF93DF93CDB7DEB78BE290E02BE27D
:1010000030E0F90120812068FC0120830000DF919D
:10101000CF910895CF93DF93CDB7DEB78BE290E009
:101020002BE230E0F90120812F77FC0120830000C2
:10103000DF91CF910895CF93DF93CDB7DEB76C9753
:101040000FB6F894DEBF0FBECDBF9091000181E0D6
:101050008927882321F08DE40E94D30215C10E94C4
:10106000D70701C10E940A088BE290E02BE230E032
:10107000F90120812064FC01208380E090E0A8EC4D
:10108000B3E489839A83AB83BC8320E030E04AE7F2
:1010900055E469817A818B819C810E94DE0CDC01A0
:1010A000CB018B8B9C8BAD8BBE8B20E030E040E87E
:1010B0005FE36B897C898D899E890E94810B8823DF
:1010C0002CF481E090E0988F8F8B3FC020E03FEFC1
:1010D0004FE757E46B897C898D899E890E94D90CE2
:1010E00018164CF520E030E040E251E469817A8145
:1010F0008B819C810E94DE0CDC01CB01BC01CD0107
:101100000E94F80BDC01CB01988F8F8B0FC080E918
:1011100091E09A8F898F898D9A8D0197F1F79A8F37
:10112000898F8F89988D0197988F8F8B8F89988D54
:10113000892B69F714C06B897C898D899E890E94EF
:10114000F80BDC01CB01988F8F8B8F89988D9C8F4A
:101150008B8F8B8D9C8D0197F1F79C8F8B8F8BE202
:1011600090E02BE230E0F90120812F7BFC0120830D
:1011700080E090E0A8ECB3E48D839E83AF83B887D2
:1011800020E030E04AE755E46D817E818F819885CB
:101190000E94DE0CDC01CB0189879A87AB87BC8774
:1011A00020E030E040E85FE369857A858B859C85A7
:1011B0000E94810B88232CF481E090E09E878D872C
:1011C0003FC020E03FEF4FE757E469857A858B8584
:1011D0009C850E94D90C18164CF520E030E040E2C6
:1011E00051E46D817E818F8198850E94DE0CDC0147
:1011F000CB01BC01CD010E94F80BDC01CB019E8725
:101200008D870FC080E991E0988B8F878F859889B3
:101210000197F1F7988B8F878D859E8501979E8723
:101220008D878D859E85892B69F714C069857A85A0
:101230008B859C850E94F80BDC01CB019E878D87F6
:101240008D859E859A8B898B89899A890197F1F77B
:101250009A8B898B8091040190910501019690935E
:1012600005018093040120910401309105018091D2
:10127000010190910201281739070CF4F3CE87E59C
:101280000E94D3021092000100006C960FB6F894F1
:10129000DEBF0FBECDBFDF91CF910895CF93DF9317
:1012A000CDB7DEB76C970FB6F894DEBF0FBECDBFDB
:1012B00080910001882321F08DE40E94D30216C1A1
:1012C0000E94F90701C10E94E8078BE290E02BE23F
:1012D00030E0F90120812064FC01208380E090E06F
:1012E000A8ECB3E489839A83AB83BC8320E030E02D
:1012F0004AE755E469817A818B819C810E94DE0CEA
:10130000DC01CB018B8B9C8BAD8BBE8B20E030E066
:1013100040E85FE36B897C898D899E890E94810BFF
:1013200088232CF481E090E0988F8F8B3FC020E0E1
:101330003FEF4FE757E46B897C898D899E890E9436
:10134000D90C18164CF520E030E040E251E46981F8
:101350007A818B819C810E94DE0CDC01CB01BC0177
:10136000CD010E94F80BDC01CB01988F8F8B0FC051
:1013700080E991E09A8F898F898D9A8D0197F1F795
:101380009A8F898F8F89988D0197988F8F8B8F89EE
:10139000988D892B69F714C06B897C898D899E890A
:1013A0000E94F80BDC01CB01988F8F8B8F89988D71
:1013B0009C8F8B8F8B8D9C8D0197F1F79C8F8B8FE2
:1013C0008BE290E02BE230E0F90120812F7BFC01E1
:1013D000208380E090E0A8ECB3E48D839E83AF830C
:1013E000B88720E030E04AE755E46D817E818F8147
:1013F00098850E94DE0CDC01CB0189879A87AB8738
:10140000BC8720E030E040E85FE369857A858B8522
:101410009C850E94810B88232CF481E090E09E87BC
:101420008D873FC020E03FEF4FE757E469857A851D
:101430008B859C850E94D90C18164CF520E030E075
:1014400040E251E46D817E818F8198850E94DE0C9F
:10145000DC01CB01BC01CD010E94F80BDC01CB010A
:101460009E878D870FC080E991E0988B8F878F854D
:1014700098890197F1F7988B8F878D859E850197C5
:101480009E878D878D859E85892B69F714C0698518
:101490007A858B859C850E94F80BDC01CB019E87A9
:1014A0008D878D859E859A8B898B89899A890197ED
:1014B000F1F79A8B898B8091040190910501019736
:1014C000909305018093040120910401309105015E
:1014D0008091060190910701821793070CF4F3CED7
:1014E00088E50E94D30281E08093000100006C96A1
:1014F0000FB6F894DEBF0FBECDBFDF91CF91089538
:10150000CF93DF931F92CDB7DEB70E94C6078983C2
:101510008981853311F40E944E098981863311F443
:101520000E941B088981873311F40E945207898128
:10153000883321F40E9402060E94D30289818933F4
:1015400011F40E945D0389818A3311F40E947B06A5
:101550008981853391F08981863379F08981873358
:1015600061F08981883349F08981893331F089813B
:101570008A3319F085E40E94D30200000F90DF91B6
:10158000CF910895CF93DF93CDB7DEB784E290E09B
:1015900024E230E0F90120812260FC01208384E212
:1015A00090E024E230E0F90120812B7FFC012083D0
:1015B0008AE290E02AE230E0F90120812068FC0113
:1015C00020838AE290E02AE230E0F9012081206461
:1015D000FC0120838AE290E02AE230E0F9012081D8
:1015E0002062FC0120830E94E8070E94F9070000A6
:1015F000DF91CF910895CF93DF93CDB7DEB70E94EF
:10160000ED020E9435030E94C20A0E94AB0142E330
:1016100050E060E070E080E89AE00E94D8000E940C
:10162000D1010E945300FDCF5058BB27AA270E942A
:101630002C0B0C949F0C0E94910C38F00E94980C7B
:1016400020F039F49F3F19F426F40C948E0C0EF41C
:10165000E095E7FB0C94880CE92F0E94B00C58F33E
:10166000BA17620773078407950720F079F4A6F587
:101670000C94D20C0EF4E0950B2EBA2FA02D0B017A
:10168000B90190010C01CA01A0011124FF27591BC7
:1016900099F0593F50F4503E68F11A16F040A22FCD
:1016A000232F342F4427585FF3CF4695379527953E
:1016B000A795F0405395C9F77EF41F16BA0B620B3D
:1016C000730B840BBAF09150A1F0FF0FBB1F661F84
:1016D000771F881FC2F70EC0BA0F621F731F841FC7
:1016E00048F4879577956795B795F7959E3F08F0ED
:1016F000B0CF9395880F08F09927EE0F97958795AF
:1017000008950E94640C08F481E008950E949A0BE9
:101710000C949F0C0E94980C58F00E94910C40F081
:1017200029F45F3F29F00C94880C51110C94D30CD0
:101730000C948E0C0E94B00C68F39923B1F35523DE
:1017400091F3951B550BBB27AA27621773078407D4
:1017500038F09F5F5F4F220F331F441FAA1FA9F36A
:1017600035D00E2E3AF0E0E832D091505040E69558
:10177000001CCAF72BD0FE2F29D0660F771F881FB9
:10178000BB1F261737074807AB07B0E809F0BB0BAC
:10179000802DBF01FF2793585F4F3AF09E3F5105C0
:1017A00078F00C94880C0C94D30C5F3FE4F3983ED3
:1017B000D4F3869577956795B795F7959F5FC9F7A9
:1017C000880F911D9695879597F90895E1E0660F2A
:1017D000771F881FBB1F621773078407BA0720F0A3
:1017E000621B730B840BBA0BEE1F88F7E09508950C
:1017F0000E94B80C88F09F5798F0B92F9927B751DD
:10180000B0F0E1F0660F771F881F991F1AF0BA95A4
:10181000C9F714C0B13091F00E94D20CB1E0089524
:101820000C94D20C672F782F8827B85F39F0B93F16
:10183000CCF3869577956795B395D9F73EF4909557
:101840008095709561957F4F8F4F9F4F0895E894D5
:1018500009C097FB3EF490958095709561957F4FF8
:101860008F4F9F4F9923A9F0F92F96E9BB279395A6
:10187000F695879577956795B795F111F8CFFAF4B6
:10188000BB0F11F460FF1BC06F5F7F4F8F4F9F4FE7
:1018900016C0882311F096E911C0772321F09EE845
:1018A000872F762F05C0662371F096E8862F70E0AB
:1018B00060E02AF09A95660F771F881FDAF7880F85
:1018C0009695879597F90895990F0008550FAA0BDB
:1018D000E0E8FEEF16161706E807F907C0F0121643
:1018E0001306E407F50798F0621B730B840B950B46
:1018F00039F40A2661F0232B242B252B21F408959B
:101900000A2609F4A140A6958FEF811D811D089537
:1019100097F99F6780E870E060E008959FEF80ECA2
:10192000089500240A941616170618060906089545
:1019300000240A9412161306140605060895092EAB
:101940000394000C11F4882352F0BB0F40F4BF2B1A
:1019500011F460FF04C06F5F7F4F8F4F9F4F08955A
:1019600057FD9058440F551F59F05F3F71F0479550
:10197000880F97FB991F61F09F3F79F08795089535
:10198000121613061406551FF2CF4695F1DF08C054
:10199000161617061806991FF1CF86957105610571
:1019A00008940895E894BB2766277727CB0197F919
:1019B00008950E94640C08F48FEF08950E94F10CC2
:1019C0000C949F0C0E94910C38F00E94980C20F00F
:1019D000952311F00C94880C0C948E0C11240C940B
:1019E000D30C0E94B00C70F3959FC1F3950F50E09B
:1019F000551F629FF001729FBB27F00DB11D639FC1
:101A0000AA27F00DB11DAA1F649F6627B00DA11D66
:101A1000661F829F2227B00DA11D621F739FB00D0C
:101A2000A11D621F839FA00D611D221F749F33277C
:101A3000A00D611D231F849F600D211D822F762F15
:101A40006A2F11249F5750409AF0F1F088234AF0F2
:101A5000EE0FFF1FBB1F661F771F881F915050405E
:101A6000A9F79E3F510580F00C94880C0C94D30C80
:101A70005F3FE4F3983ED4F3869577956795B795E5
:101A8000F795E7959F5FC1F7FE2B880F911D9695FF
:101A9000879597F908950E94B80CE8F09E37E8F012
:101AA0009639B8F49E3848F4672F782F8827985FC6
:101AB000F9CF86957795679593959539D0F3B62F9D
:101AC000B1706B0F711D811D20F487957795679517
:101AD00093950C946F0D0C948A0D0C94D30C882361
:101AE00071F4772321F09850872B762F07C0662357
:101AF00011F499270DC09051862B70E060E02AF018
:101B00009A95660F771F881FDAF7880F9695879545
:101B100097F908959F3F31F0915020F4879577957C
:101B20006795B795880F911D9695879597F90895B4
:041B3000F894FFCF57
:041B340001050000A7
:00000001FF
